{"contracts/HelloWorld.sol":{"HelloWorld":{"abi":[{"inputs":[{"internalType":"string","name":"_helloMessage","type":"string"}],"stateMutability":"nonpayable","type":"constructor"},{"inputs":[],"name":"hello","outputs":[{"internalType":"string","name":"","type":"string"}],"stateMutability":"view","type":"function"},{"inputs":[{"internalType":"string","name":"_helloMessage","type":"string"}],"name":"setHello","outputs":[],"stateMutability":"nonpayable","type":"function"}],"evm":{"bytecode":{"linkReferences":{},"object":"60806040523480156200001157600080fd5b5060405162000be638038062000be683398181016040528101906200003791906200025f565b6200004d816200006d60201b620001ce1760201c565b80600090805190602001906200006592919062000131565b5050620004b5565b6200010d81604051602401620000849190620002f1565b6040516020818303038152906040527f41304fac000000000000000000000000000000000000000000000000000000007bffffffffffffffffffffffffffffffffffffffffffffffffffffffff19166020820180517bffffffffffffffffffffffffffffffffffffffffffffffffffffffff83818316178352505050506200011060201b60201c565b50565b60006a636f6e736f6c652e6c6f679050600080835160208501845afa505050565b8280546200013f90620003c6565b90600052602060002090601f016020900481019282620001635760008555620001af565b82601f106200017e57805160ff1916838001178555620001af565b82800160010185558215620001af579182015b82811115620001ae57825182559160200191906001019062000191565b5b509050620001be9190620001c2565b5090565b5b80821115620001dd576000816000905550600101620001c3565b5090565b6000620001f8620001f2846200033e565b62000315565b90508281526020810184848401111562000217576200021662000495565b5b6200022484828562000390565b509392505050565b600082601f83011262000244576200024362000490565b5b815162000256848260208601620001e1565b91505092915050565b6000602082840312156200027857620002776200049f565b5b600082015167ffffffffffffffff8111156200029957620002986200049a565b5b620002a7848285016200022c565b91505092915050565b6000620002bd8262000374565b620002c981856200037f565b9350620002db81856020860162000390565b620002e681620004a4565b840191505092915050565b600060208201905081810360008301526200030d8184620002b0565b905092915050565b60006200032162000334565b90506200032f8282620003fc565b919050565b6000604051905090565b600067ffffffffffffffff8211156200035c576200035b62000461565b5b6200036782620004a4565b9050602081019050919050565b600081519050919050565b600082825260208201905092915050565b60005b83811015620003b057808201518184015260208101905062000393565b83811115620003c0576000848401525b50505050565b60006002820490506001821680620003df57607f821691505b60208210811415620003f657620003f562000432565b5b50919050565b6200040782620004a4565b810181811067ffffffffffffffff8211171562000429576200042862000461565b5b80604052505050565b7f4e487b7100000000000000000000000000000000000000000000000000000000600052602260045260246000fd5b7f4e487b7100000000000000000000000000000000000000000000000000000000600052604160045260246000fd5b600080fd5b600080fd5b600080fd5b600080fd5b6000601f19601f8301169050919050565b61072180620004c56000396000f3fe608060405234801561001057600080fd5b50600436106100365760003560e01c806319ff1d211461003b578063435ffe9414610059575b600080fd5b610043610075565b60405161005091906104bc565b60405180910390f35b610073600480360381019061006e919061043a565b610107565b005b606060008054610084906105de565b80601f01602080910402602001604051908101604052809291908181526020018280546100b0906105de565b80156100fd5780601f106100d2576101008083540402835291602001916100fd565b820191906000526020600020905b8154815290600101906020018083116100e057829003601f168201915b5050505050905090565b6101b46040518060600160405280602781526020016106c56027913960008054610130906105de565b80601f016020809104026020016040519081016040528092919081815260200182805461015c906105de565b80156101a95780601f1061017e576101008083540402835291602001916101a9565b820191906000526020600020905b81548152906001019060200180831161018c57829003601f168201915b505050505083610267565b80600090805190602001906101ca929190610327565b5050565b610264816040516024016101e291906104bc565b6040516020818303038152906040527f41304fac000000000000000000000000000000000000000000000000000000007bffffffffffffffffffffffffffffffffffffffffffffffffffffffff19166020820180517bffffffffffffffffffffffffffffffffffffffffffffffffffffffff8381831617835250505050610306565b50565b61030183838360405160240161027f939291906104de565b6040516020818303038152906040527f2ced7cef000000000000000000000000000000000000000000000000000000007bffffffffffffffffffffffffffffffffffffffffffffffffffffffff19166020820180517bffffffffffffffffffffffffffffffffffffffffffffffffffffffff8381831617835250505050610306565b505050565b60006a636f6e736f6c652e6c6f679050600080835160208501845afa505050565b828054610333906105de565b90600052602060002090601f016020900481019282610355576000855561039c565b82601f1061036e57805160ff191683800117855561039c565b8280016001018555821561039c579182015b8281111561039b578251825591602001919060010190610380565b5b5090506103a991906103ad565b5090565b5b808211156103c65760008160009055506001016103ae565b5090565b60006103dd6103d88461054f565b61052a565b9050828152602081018484840111156103f9576103f86106a4565b5b61040484828561059c565b509392505050565b600082601f8301126104215761042061069f565b5b81356104318482602086016103ca565b91505092915050565b6000602082840312156104505761044f6106ae565b5b600082013567ffffffffffffffff81111561046e5761046d6106a9565b5b61047a8482850161040c565b91505092915050565b600061048e82610580565b610498818561058b565b93506104a88185602086016105ab565b6104b1816106b3565b840191505092915050565b600060208201905081810360008301526104d68184610483565b905092915050565b600060608201905081810360008301526104f88186610483565b9050818103602083015261050c8185610483565b905081810360408301526105208184610483565b9050949350505050565b6000610534610545565b90506105408282610610565b919050565b6000604051905090565b600067ffffffffffffffff82111561056a57610569610670565b5b610573826106b3565b9050602081019050919050565b600081519050919050565b600082825260208201905092915050565b82818337600083830152505050565b60005b838110156105c95780820151818401526020810190506105ae565b838111156105d8576000848401525b50505050565b600060028204905060018216806105f657607f821691505b6020821081141561060a57610609610641565b5b50919050565b610619826106b3565b810181811067ffffffffffffffff8211171561063857610637610670565b5b80604052505050565b7f4e487b7100000000000000000000000000000000000000000000000000000000600052602260045260246000fd5b7f4e487b7100000000000000000000000000000000000000000000000000000000600052604160045260246000fd5b600080fd5b600080fd5b600080fd5b600080fd5b6000601f19601f830116905091905056fe4368616e67696e672068656c6c6f4d6573736167652066726f6d202725732720746f2027257327a2646970667358221220ab0d131582b0f988b728ec2698c844f683d3be9cfb920bde5d6e72fd6c3be14664736f6c63430008060033","opcodes":"PUSH1 0x80 PUSH1 0x40 MSTORE CALLVALUE DUP1 ISZERO PUSH3 0x11 JUMPI PUSH1 0x0 DUP1 REVERT JUMPDEST POP PUSH1 0x40 MLOAD PUSH3 0xBE6 CODESIZE SUB DUP1 PUSH3 0xBE6 DUP4 CODECOPY DUP2 DUP2 ADD PUSH1 0x40 MSTORE DUP2 ADD SWAP1 PUSH3 0x37 SWAP2 SWAP1 PUSH3 0x25F JUMP JUMPDEST PUSH3 0x4D DUP2 PUSH3 0x6D PUSH1 0x20 SHL PUSH3 0x1CE OR PUSH1 0x20 SHR JUMP JUMPDEST DUP1 PUSH1 0x0 SWAP1 DUP1 MLOAD SWAP1 PUSH1 0x20 ADD SWAP1 PUSH3 0x65 SWAP3 SWAP2 SWAP1 PUSH3 0x131 JUMP JUMPDEST POP POP PUSH3 0x4B5 JUMP JUMPDEST PUSH3 0x10D DUP2 PUSH1 0x40 MLOAD PUSH1 0x24 ADD PUSH3 0x84 SWAP2 SWAP1 PUSH3 0x2F1 JUMP JUMPDEST PUSH1 0x40 MLOAD PUSH1 0x20 DUP2 DUP4 SUB SUB DUP2 MSTORE SWAP1 PUSH1 0x40 MSTORE PUSH32 0x41304FAC00000000000000000000000000000000000000000000000000000000 PUSH28 0xFFFFFFFFFFFFFFFFFFFFFFFFFFFFFFFFFFFFFFFFFFFFFFFFFFFFFFFF NOT AND PUSH1 0x20 DUP3 ADD DUP1 MLOAD PUSH28 0xFFFFFFFFFFFFFFFFFFFFFFFFFFFFFFFFFFFFFFFFFFFFFFFFFFFFFFFF DUP4 DUP2 DUP4 AND OR DUP4 MSTORE POP POP POP POP PUSH3 0x110 PUSH1 0x20 SHL PUSH1 0x20 SHR JUMP JUMPDEST POP JUMP JUMPDEST PUSH1 0x0 PUSH11 0x636F6E736F6C652E6C6F67 SWAP1 POP PUSH1 0x0 DUP1 DUP4 MLOAD PUSH1 0x20 DUP6 ADD DUP5 GAS STATICCALL POP POP POP JUMP JUMPDEST DUP3 DUP1 SLOAD PUSH3 0x13F SWAP1 PUSH3 0x3C6 JUMP JUMPDEST SWAP1 PUSH1 0x0 MSTORE PUSH1 0x20 PUSH1 0x0 KECCAK256 SWAP1 PUSH1 0x1F ADD PUSH1 0x20 SWAP1 DIV DUP2 ADD SWAP3 DUP3 PUSH3 0x163 JUMPI PUSH1 0x0 DUP6 SSTORE PUSH3 0x1AF JUMP JUMPDEST DUP3 PUSH1 0x1F LT PUSH3 0x17E JUMPI DUP1 MLOAD PUSH1 0xFF NOT AND DUP4 DUP1 ADD OR DUP6 SSTORE PUSH3 0x1AF JUMP JUMPDEST DUP3 DUP1 ADD PUSH1 0x1 ADD DUP6 SSTORE DUP3 ISZERO PUSH3 0x1AF JUMPI SWAP2 DUP3 ADD JUMPDEST DUP3 DUP2 GT ISZERO PUSH3 0x1AE JUMPI DUP3 MLOAD DUP3 SSTORE SWAP2 PUSH1 0x20 ADD SWAP2 SWAP1 PUSH1 0x1 ADD SWAP1 PUSH3 0x191 JUMP JUMPDEST JUMPDEST POP SWAP1 POP PUSH3 0x1BE SWAP2 SWAP1 PUSH3 0x1C2 JUMP JUMPDEST POP SWAP1 JUMP JUMPDEST JUMPDEST DUP1 DUP3 GT ISZERO PUSH3 0x1DD JUMPI PUSH1 0x0 DUP2 PUSH1 0x0 SWAP1 SSTORE POP PUSH1 0x1 ADD PUSH3 0x1C3 JUMP JUMPDEST POP SWAP1 JUMP JUMPDEST PUSH1 0x0 PUSH3 0x1F8 PUSH3 0x1F2 DUP5 PUSH3 0x33E JUMP JUMPDEST PUSH3 0x315 JUMP JUMPDEST SWAP1 POP DUP3 DUP2 MSTORE PUSH1 0x20 DUP2 ADD DUP5 DUP5 DUP5 ADD GT ISZERO PUSH3 0x217 JUMPI PUSH3 0x216 PUSH3 0x495 JUMP JUMPDEST JUMPDEST PUSH3 0x224 DUP5 DUP3 DUP6 PUSH3 0x390 JUMP JUMPDEST POP SWAP4 SWAP3 POP POP POP JUMP JUMPDEST PUSH1 0x0 DUP3 PUSH1 0x1F DUP4 ADD SLT PUSH3 0x244 JUMPI PUSH3 0x243 PUSH3 0x490 JUMP JUMPDEST JUMPDEST DUP2 MLOAD PUSH3 0x256 DUP5 DUP3 PUSH1 0x20 DUP7 ADD PUSH3 0x1E1 JUMP JUMPDEST SWAP2 POP POP SWAP3 SWAP2 POP POP JUMP JUMPDEST PUSH1 0x0 PUSH1 0x20 DUP3 DUP5 SUB SLT ISZERO PUSH3 0x278 JUMPI PUSH3 0x277 PUSH3 0x49F JUMP JUMPDEST JUMPDEST PUSH1 0x0 DUP3 ADD MLOAD PUSH8 0xFFFFFFFFFFFFFFFF DUP2 GT ISZERO PUSH3 0x299 JUMPI PUSH3 0x298 PUSH3 0x49A JUMP JUMPDEST JUMPDEST PUSH3 0x2A7 DUP5 DUP3 DUP6 ADD PUSH3 0x22C JUMP JUMPDEST SWAP2 POP POP SWAP3 SWAP2 POP POP JUMP JUMPDEST PUSH1 0x0 PUSH3 0x2BD DUP3 PUSH3 0x374 JUMP JUMPDEST PUSH3 0x2C9 DUP2 DUP6 PUSH3 0x37F JUMP JUMPDEST SWAP4 POP PUSH3 0x2DB DUP2 DUP6 PUSH1 0x20 DUP7 ADD PUSH3 0x390 JUMP JUMPDEST PUSH3 0x2E6 DUP2 PUSH3 0x4A4 JUMP JUMPDEST DUP5 ADD SWAP2 POP POP SWAP3 SWAP2 POP POP JUMP JUMPDEST PUSH1 0x0 PUSH1 0x20 DUP3 ADD SWAP1 POP DUP2 DUP2 SUB PUSH1 0x0 DUP4 ADD MSTORE PUSH3 0x30D DUP2 DUP5 PUSH3 0x2B0 JUMP JUMPDEST SWAP1 POP SWAP3 SWAP2 POP POP JUMP JUMPDEST PUSH1 0x0 PUSH3 0x321 PUSH3 0x334 JUMP JUMPDEST SWAP1 POP PUSH3 0x32F DUP3 DUP3 PUSH3 0x3FC JUMP JUMPDEST SWAP2 SWAP1 POP JUMP JUMPDEST PUSH1 0x0 PUSH1 0x40 MLOAD SWAP1 POP SWAP1 JUMP JUMPDEST PUSH1 0x0 PUSH8 0xFFFFFFFFFFFFFFFF DUP3 GT ISZERO PUSH3 0x35C JUMPI PUSH3 0x35B PUSH3 0x461 JUMP JUMPDEST JUMPDEST PUSH3 0x367 DUP3 PUSH3 0x4A4 JUMP JUMPDEST SWAP1 POP PUSH1 0x20 DUP2 ADD SWAP1 POP SWAP2 SWAP1 POP JUMP JUMPDEST PUSH1 0x0 DUP2 MLOAD SWAP1 POP SWAP2 SWAP1 POP JUMP JUMPDEST PUSH1 0x0 DUP3 DUP3 MSTORE PUSH1 0x20 DUP3 ADD SWAP1 POP SWAP3 SWAP2 POP POP JUMP JUMPDEST PUSH1 0x0 JUMPDEST DUP4 DUP2 LT ISZERO PUSH3 0x3B0 JUMPI DUP1 DUP3 ADD MLOAD DUP2 DUP5 ADD MSTORE PUSH1 0x20 DUP2 ADD SWAP1 POP PUSH3 0x393 JUMP JUMPDEST DUP4 DUP2 GT ISZERO PUSH3 0x3C0 JUMPI PUSH1 0x0 DUP5 DUP5 ADD MSTORE JUMPDEST POP POP POP POP JUMP JUMPDEST PUSH1 0x0 PUSH1 0x2 DUP3 DIV SWAP1 POP PUSH1 0x1 DUP3 AND DUP1 PUSH3 0x3DF JUMPI PUSH1 0x7F DUP3 AND SWAP2 POP JUMPDEST PUSH1 0x20 DUP3 LT DUP2 EQ ISZERO PUSH3 0x3F6 JUMPI PUSH3 0x3F5 PUSH3 0x432 JUMP JUMPDEST JUMPDEST POP SWAP2 SWAP1 POP JUMP JUMPDEST PUSH3 0x407 DUP3 PUSH3 0x4A4 JUMP JUMPDEST DUP2 ADD DUP2 DUP2 LT PUSH8 0xFFFFFFFFFFFFFFFF DUP3 GT OR ISZERO PUSH3 0x429 JUMPI PUSH3 0x428 PUSH3 0x461 JUMP JUMPDEST JUMPDEST DUP1 PUSH1 0x40 MSTORE POP POP POP JUMP JUMPDEST PUSH32 0x4E487B7100000000000000000000000000000000000000000000000000000000 PUSH1 0x0 MSTORE PUSH1 0x22 PUSH1 0x4 MSTORE PUSH1 0x24 PUSH1 0x0 REVERT JUMPDEST PUSH32 0x4E487B7100000000000000000000000000000000000000000000000000000000 PUSH1 0x0 MSTORE PUSH1 0x41 PUSH1 0x4 MSTORE PUSH1 0x24 PUSH1 0x0 REVERT JUMPDEST PUSH1 0x0 DUP1 REVERT JUMPDEST PUSH1 0x0 DUP1 REVERT JUMPDEST PUSH1 0x0 DUP1 REVERT JUMPDEST PUSH1 0x0 DUP1 REVERT JUMPDEST PUSH1 0x0 PUSH1 0x1F NOT PUSH1 0x1F DUP4 ADD AND SWAP1 POP SWAP2 SWAP1 POP JUMP JUMPDEST PUSH2 0x721 DUP1 PUSH3 0x4C5 PUSH1 0x0 CODECOPY PUSH1 0x0 RETURN INVALID PUSH1 0x80 PUSH1 0x40 MSTORE CALLVALUE DUP1 ISZERO PUSH2 0x10 JUMPI PUSH1 0x0 DUP1 REVERT JUMPDEST POP PUSH1 0x4 CALLDATASIZE LT PUSH2 0x36 JUMPI PUSH1 0x0 CALLDATALOAD PUSH1 0xE0 SHR DUP1 PUSH4 0x19FF1D21 EQ PUSH2 0x3B JUMPI DUP1 PUSH4 0x435FFE94 EQ PUSH2 0x59 JUMPI JUMPDEST PUSH1 0x0 DUP1 REVERT JUMPDEST PUSH2 0x43 PUSH2 0x75 JUMP JUMPDEST PUSH1 0x40 MLOAD PUSH2 0x50 SWAP2 SWAP1 PUSH2 0x4BC JUMP JUMPDEST PUSH1 0x40 MLOAD DUP1 SWAP2 SUB SWAP1 RETURN JUMPDEST PUSH2 0x73 PUSH1 0x4 DUP1 CALLDATASIZE SUB DUP2 ADD SWAP1 PUSH2 0x6E SWAP2 SWAP1 PUSH2 0x43A JUMP JUMPDEST PUSH2 0x107 JUMP JUMPDEST STOP JUMPDEST PUSH1 0x60 PUSH1 0x0 DUP1 SLOAD PUSH2 0x84 SWAP1 PUSH2 0x5DE JUMP JUMPDEST DUP1 PUSH1 0x1F ADD PUSH1 0x20 DUP1 SWAP2 DIV MUL PUSH1 0x20 ADD PUSH1 0x40 MLOAD SWAP1 DUP2 ADD PUSH1 0x40 MSTORE DUP1 SWAP3 SWAP2 SWAP1 DUP2 DUP2 MSTORE PUSH1 0x20 ADD DUP3 DUP1 SLOAD PUSH2 0xB0 SWAP1 PUSH2 0x5DE JUMP JUMPDEST DUP1 ISZERO PUSH2 0xFD JUMPI DUP1 PUSH1 0x1F LT PUSH2 0xD2 JUMPI PUSH2 0x100 DUP1 DUP4 SLOAD DIV MUL DUP4 MSTORE SWAP2 PUSH1 0x20 ADD SWAP2 PUSH2 0xFD JUMP JUMPDEST DUP3 ADD SWAP2 SWAP1 PUSH1 0x0 MSTORE PUSH1 0x20 PUSH1 0x0 KECCAK256 SWAP1 JUMPDEST DUP2 SLOAD DUP2 MSTORE SWAP1 PUSH1 0x1 ADD SWAP1 PUSH1 0x20 ADD DUP1 DUP4 GT PUSH2 0xE0 JUMPI DUP3 SWAP1 SUB PUSH1 0x1F AND DUP3 ADD SWAP2 JUMPDEST POP POP POP POP POP SWAP1 POP SWAP1 JUMP JUMPDEST PUSH2 0x1B4 PUSH1 0x40 MLOAD DUP1 PUSH1 0x60 ADD PUSH1 0x40 MSTORE DUP1 PUSH1 0x27 DUP2 MSTORE PUSH1 0x20 ADD PUSH2 0x6C5 PUSH1 0x27 SWAP2 CODECOPY PUSH1 0x0 DUP1 SLOAD PUSH2 0x130 SWAP1 PUSH2 0x5DE JUMP JUMPDEST DUP1 PUSH1 0x1F ADD PUSH1 0x20 DUP1 SWAP2 DIV MUL PUSH1 0x20 ADD PUSH1 0x40 MLOAD SWAP1 DUP2 ADD PUSH1 0x40 MSTORE DUP1 SWAP3 SWAP2 SWAP1 DUP2 DUP2 MSTORE PUSH1 0x20 ADD DUP3 DUP1 SLOAD PUSH2 0x15C SWAP1 PUSH2 0x5DE JUMP JUMPDEST DUP1 ISZERO PUSH2 0x1A9 JUMPI DUP1 PUSH1 0x1F LT PUSH2 0x17E JUMPI PUSH2 0x100 DUP1 DUP4 SLOAD DIV MUL DUP4 MSTORE SWAP2 PUSH1 0x20 ADD SWAP2 PUSH2 0x1A9 JUMP JUMPDEST DUP3 ADD SWAP2 SWAP1 PUSH1 0x0 MSTORE PUSH1 0x20 PUSH1 0x0 KECCAK256 SWAP1 JUMPDEST DUP2 SLOAD DUP2 MSTORE SWAP1 PUSH1 0x1 ADD SWAP1 PUSH1 0x20 ADD DUP1 DUP4 GT PUSH2 0x18C JUMPI DUP3 SWAP1 SUB PUSH1 0x1F AND DUP3 ADD SWAP2 JUMPDEST POP POP POP POP POP DUP4 PUSH2 0x267 JUMP JUMPDEST DUP1 PUSH1 0x0 SWAP1 DUP1 MLOAD SWAP1 PUSH1 0x20 ADD SWAP1 PUSH2 0x1CA SWAP3 SWAP2 SWAP1 PUSH2 0x327 JUMP JUMPDEST POP POP JUMP JUMPDEST PUSH2 0x264 DUP2 PUSH1 0x40 MLOAD PUSH1 0x24 ADD PUSH2 0x1E2 SWAP2 SWAP1 PUSH2 0x4BC JUMP JUMPDEST PUSH1 0x40 MLOAD PUSH1 0x20 DUP2 DUP4 SUB SUB DUP2 MSTORE SWAP1 PUSH1 0x40 MSTORE PUSH32 0x41304FAC00000000000000000000000000000000000000000000000000000000 PUSH28 0xFFFFFFFFFFFFFFFFFFFFFFFFFFFFFFFFFFFFFFFFFFFFFFFFFFFFFFFF NOT AND PUSH1 0x20 DUP3 ADD DUP1 MLOAD PUSH28 0xFFFFFFFFFFFFFFFFFFFFFFFFFFFFFFFFFFFFFFFFFFFFFFFFFFFFFFFF DUP4 DUP2 DUP4 AND OR DUP4 MSTORE POP POP POP POP PUSH2 0x306 JUMP JUMPDEST POP JUMP JUMPDEST PUSH2 0x301 DUP4 DUP4 DUP4 PUSH1 0x40 MLOAD PUSH1 0x24 ADD PUSH2 0x27F SWAP4 SWAP3 SWAP2 SWAP1 PUSH2 0x4DE JUMP JUMPDEST PUSH1 0x40 MLOAD PUSH1 0x20 DUP2 DUP4 SUB SUB DUP2 MSTORE SWAP1 PUSH1 0x40 MSTORE PUSH32 0x2CED7CEF00000000000000000000000000000000000000000000000000000000 PUSH28 0xFFFFFFFFFFFFFFFFFFFFFFFFFFFFFFFFFFFFFFFFFFFFFFFFFFFFFFFF NOT AND PUSH1 0x20 DUP3 ADD DUP1 MLOAD PUSH28 0xFFFFFFFFFFFFFFFFFFFFFFFFFFFFFFFFFFFFFFFFFFFFFFFFFFFFFFFF DUP4 DUP2 DUP4 AND OR DUP4 MSTORE POP POP POP POP PUSH2 0x306 JUMP JUMPDEST POP POP POP JUMP JUMPDEST PUSH1 0x0 PUSH11 0x636F6E736F6C652E6C6F67 SWAP1 POP PUSH1 0x0 DUP1 DUP4 MLOAD PUSH1 0x20 DUP6 ADD DUP5 GAS STATICCALL POP POP POP JUMP JUMPDEST DUP3 DUP1 SLOAD PUSH2 0x333 SWAP1 PUSH2 0x5DE JUMP JUMPDEST SWAP1 PUSH1 0x0 MSTORE PUSH1 0x20 PUSH1 0x0 KECCAK256 SWAP1 PUSH1 0x1F ADD PUSH1 0x20 SWAP1 DIV DUP2 ADD SWAP3 DUP3 PUSH2 0x355 JUMPI PUSH1 0x0 DUP6 SSTORE PUSH2 0x39C JUMP JUMPDEST DUP3 PUSH1 0x1F LT PUSH2 0x36E JUMPI DUP1 MLOAD PUSH1 0xFF NOT AND DUP4 DUP1 ADD OR DUP6 SSTORE PUSH2 0x39C JUMP JUMPDEST DUP3 DUP1 ADD PUSH1 0x1 ADD DUP6 SSTORE DUP3 ISZERO PUSH2 0x39C JUMPI SWAP2 DUP3 ADD JUMPDEST DUP3 DUP2 GT ISZERO PUSH2 0x39B JUMPI DUP3 MLOAD DUP3 SSTORE SWAP2 PUSH1 0x20 ADD SWAP2 SWAP1 PUSH1 0x1 ADD SWAP1 PUSH2 0x380 JUMP JUMPDEST JUMPDEST POP SWAP1 POP PUSH2 0x3A9 SWAP2 SWAP1 PUSH2 0x3AD JUMP JUMPDEST POP SWAP1 JUMP JUMPDEST JUMPDEST DUP1 DUP3 GT ISZERO PUSH2 0x3C6 JUMPI PUSH1 0x0 DUP2 PUSH1 0x0 SWAP1 SSTORE POP PUSH1 0x1 ADD PUSH2 0x3AE JUMP JUMPDEST POP SWAP1 JUMP JUMPDEST PUSH1 0x0 PUSH2 0x3DD PUSH2 0x3D8 DUP5 PUSH2 0x54F JUMP JUMPDEST PUSH2 0x52A JUMP JUMPDEST SWAP1 POP DUP3 DUP2 MSTORE PUSH1 0x20 DUP2 ADD DUP5 DUP5 DUP5 ADD GT ISZERO PUSH2 0x3F9 JUMPI PUSH2 0x3F8 PUSH2 0x6A4 JUMP JUMPDEST JUMPDEST PUSH2 0x404 DUP5 DUP3 DUP6 PUSH2 0x59C JUMP JUMPDEST POP SWAP4 SWAP3 POP POP POP JUMP JUMPDEST PUSH1 0x0 DUP3 PUSH1 0x1F DUP4 ADD SLT PUSH2 0x421 JUMPI PUSH2 0x420 PUSH2 0x69F JUMP JUMPDEST JUMPDEST DUP2 CALLDATALOAD PUSH2 0x431 DUP5 DUP3 PUSH1 0x20 DUP7 ADD PUSH2 0x3CA JUMP JUMPDEST SWAP2 POP POP SWAP3 SWAP2 POP POP JUMP JUMPDEST PUSH1 0x0 PUSH1 0x20 DUP3 DUP5 SUB SLT ISZERO PUSH2 0x450 JUMPI PUSH2 0x44F PUSH2 0x6AE JUMP JUMPDEST JUMPDEST PUSH1 0x0 DUP3 ADD CALLDATALOAD PUSH8 0xFFFFFFFFFFFFFFFF DUP2 GT ISZERO PUSH2 0x46E JUMPI PUSH2 0x46D PUSH2 0x6A9 JUMP JUMPDEST JUMPDEST PUSH2 0x47A DUP5 DUP3 DUP6 ADD PUSH2 0x40C JUMP JUMPDEST SWAP2 POP POP SWAP3 SWAP2 POP POP JUMP JUMPDEST PUSH1 0x0 PUSH2 0x48E DUP3 PUSH2 0x580 JUMP JUMPDEST PUSH2 0x498 DUP2 DUP6 PUSH2 0x58B JUMP JUMPDEST SWAP4 POP PUSH2 0x4A8 DUP2 DUP6 PUSH1 0x20 DUP7 ADD PUSH2 0x5AB JUMP JUMPDEST PUSH2 0x4B1 DUP2 PUSH2 0x6B3 JUMP JUMPDEST DUP5 ADD SWAP2 POP POP SWAP3 SWAP2 POP POP JUMP JUMPDEST PUSH1 0x0 PUSH1 0x20 DUP3 ADD SWAP1 POP DUP2 DUP2 SUB PUSH1 0x0 DUP4 ADD MSTORE PUSH2 0x4D6 DUP2 DUP5 PUSH2 0x483 JUMP JUMPDEST SWAP1 POP SWAP3 SWAP2 POP POP JUMP JUMPDEST PUSH1 0x0 PUSH1 0x60 DUP3 ADD SWAP1 POP DUP2 DUP2 SUB PUSH1 0x0 DUP4 ADD MSTORE PUSH2 0x4F8 DUP2 DUP7 PUSH2 0x483 JUMP JUMPDEST SWAP1 POP DUP2 DUP2 SUB PUSH1 0x20 DUP4 ADD MSTORE PUSH2 0x50C DUP2 DUP6 PUSH2 0x483 JUMP JUMPDEST SWAP1 POP DUP2 DUP2 SUB PUSH1 0x40 DUP4 ADD MSTORE PUSH2 0x520 DUP2 DUP5 PUSH2 0x483 JUMP JUMPDEST SWAP1 POP SWAP5 SWAP4 POP POP POP POP JUMP JUMPDEST PUSH1 0x0 PUSH2 0x534 PUSH2 0x545 JUMP JUMPDEST SWAP1 POP PUSH2 0x540 DUP3 DUP3 PUSH2 0x610 JUMP JUMPDEST SWAP2 SWAP1 POP JUMP JUMPDEST PUSH1 0x0 PUSH1 0x40 MLOAD SWAP1 POP SWAP1 JUMP JUMPDEST PUSH1 0x0 PUSH8 0xFFFFFFFFFFFFFFFF DUP3 GT ISZERO PUSH2 0x56A JUMPI PUSH2 0x569 PUSH2 0x670 JUMP JUMPDEST JUMPDEST PUSH2 0x573 DUP3 PUSH2 0x6B3 JUMP JUMPDEST SWAP1 POP PUSH1 0x20 DUP2 ADD SWAP1 POP SWAP2 SWAP1 POP JUMP JUMPDEST PUSH1 0x0 DUP2 MLOAD SWAP1 POP SWAP2 SWAP1 POP JUMP JUMPDEST PUSH1 0x0 DUP3 DUP3 MSTORE PUSH1 0x20 DUP3 ADD SWAP1 POP SWAP3 SWAP2 POP POP JUMP JUMPDEST DUP3 DUP2 DUP4 CALLDATACOPY PUSH1 0x0 DUP4 DUP4 ADD MSTORE POP POP POP JUMP JUMPDEST PUSH1 0x0 JUMPDEST DUP4 DUP2 LT ISZERO PUSH2 0x5C9 JUMPI DUP1 DUP3 ADD MLOAD DUP2 DUP5 ADD MSTORE PUSH1 0x20 DUP2 ADD SWAP1 POP PUSH2 0x5AE JUMP JUMPDEST DUP4 DUP2 GT ISZERO PUSH2 0x5D8 JUMPI PUSH1 0x0 DUP5 DUP5 ADD MSTORE JUMPDEST POP POP POP POP JUMP JUMPDEST PUSH1 0x0 PUSH1 0x2 DUP3 DIV SWAP1 POP PUSH1 0x1 DUP3 AND DUP1 PUSH2 0x5F6 JUMPI PUSH1 0x7F DUP3 AND SWAP2 POP JUMPDEST PUSH1 0x20 DUP3 LT DUP2 EQ ISZERO PUSH2 0x60A JUMPI PUSH2 0x609 PUSH2 0x641 JUMP JUMPDEST JUMPDEST POP SWAP2 SWAP1 POP JUMP JUMPDEST PUSH2 0x619 DUP3 PUSH2 0x6B3 JUMP JUMPDEST DUP2 ADD DUP2 DUP2 LT PUSH8 0xFFFFFFFFFFFFFFFF DUP3 GT OR ISZERO PUSH2 0x638 JUMPI PUSH2 0x637 PUSH2 0x670 JUMP JUMPDEST JUMPDEST DUP1 PUSH1 0x40 MSTORE POP POP POP JUMP JUMPDEST PUSH32 0x4E487B7100000000000000000000000000000000000000000000000000000000 PUSH1 0x0 MSTORE PUSH1 0x22 PUSH1 0x4 MSTORE PUSH1 0x24 PUSH1 0x0 REVERT JUMPDEST PUSH32 0x4E487B7100000000000000000000000000000000000000000000000000000000 PUSH1 0x0 MSTORE PUSH1 0x41 PUSH1 0x4 MSTORE PUSH1 0x24 PUSH1 0x0 REVERT JUMPDEST PUSH1 0x0 DUP1 REVERT JUMPDEST PUSH1 0x0 DUP1 REVERT JUMPDEST PUSH1 0x0 DUP1 REVERT JUMPDEST PUSH1 0x0 DUP1 REVERT JUMPDEST PUSH1 0x0 PUSH1 0x1F NOT PUSH1 0x1F DUP4 ADD AND SWAP1 POP SWAP2 SWAP1 POP JUMP INVALID NUMBER PUSH9 0x616E67696E67206865 PUSH13 0x6C6F4D6573736167652066726F PUSH14 0x202725732720746F2027257327A2 PUSH5 0x6970667358 0x22 SLT KECCAK256 0xAB 0xD SGT ISZERO DUP3 0xB0 0xF9 DUP9 0xB7 0x28 0xEC 0x26 SWAP9 0xC8 DIFFICULTY 0xF6 DUP4 0xD3 0xBE SWAP13 0xFB SWAP3 SIGNEXTEND 0xDE 0x5D PUSH15 0x72FD6C3BE14664736F6C6343000806 STOP CALLER "},"methodIdentifiers":{"hello()":"19ff1d21","setHello(string)":"435ffe94"}}}}}