{
  "_format": "hh-sol-artifact-1",
  "contractName": "HelloWorld",
  "sourceName": "contracts/HelloWorld.sol",
  "abi": [
    {
      "inputs": [
        {
          "internalType": "string",
          "name": "_helloMessage",
          "type": "string"
        }
      ],
      "stateMutability": "nonpayable",
      "type": "constructor"
    },
    {
      "inputs": [],
      "name": "hello",
      "outputs": [
        {
          "internalType": "string",
          "name": "",
          "type": "string"
        }
      ],
      "stateMutability": "view",
      "type": "function"
    },
    {
      "inputs": [
        {
          "internalType": "string",
          "name": "_helloMessage",
          "type": "string"
        }
      ],
      "name": "setHello",
      "outputs": [],
      "stateMutability": "nonpayable",
      "type": "function"
    }
  ],
  "bytecode": "0x60806040523480156200001157600080fd5b5060405162000be638038062000be683398181016040528101906200003791906200025f565b6200004d816200006d60201b620001ce1760201c565b80600090805190602001906200006592919062000131565b5050620004b5565b6200010d81604051602401620000849190620002f1565b6040516020818303038152906040527f41304fac000000000000000000000000000000000000000000000000000000007bffffffffffffffffffffffffffffffffffffffffffffffffffffffff19166020820180517bffffffffffffffffffffffffffffffffffffffffffffffffffffffff83818316178352505050506200011060201b60201c565b50565b60006a636f6e736f6c652e6c6f679050600080835160208501845afa505050565b8280546200013f90620003c6565b90600052602060002090601f016020900481019282620001635760008555620001af565b82601f106200017e57805160ff1916838001178555620001af565b82800160010185558215620001af579182015b82811115620001ae57825182559160200191906001019062000191565b5b509050620001be9190620001c2565b5090565b5b80821115620001dd576000816000905550600101620001c3565b5090565b6000620001f8620001f2846200033e565b62000315565b90508281526020810184848401111562000217576200021662000495565b5b6200022484828562000390565b509392505050565b600082601f83011262000244576200024362000490565b5b815162000256848260208601620001e1565b91505092915050565b6000602082840312156200027857620002776200049f565b5b600082015167ffffffffffffffff8111156200029957620002986200049a565b5b620002a7848285016200022c565b91505092915050565b6000620002bd8262000374565b620002c981856200037f565b9350620002db81856020860162000390565b620002e681620004a4565b840191505092915050565b600060208201905081810360008301526200030d8184620002b0565b905092915050565b60006200032162000334565b90506200032f8282620003fc565b919050565b6000604051905090565b600067ffffffffffffffff8211156200035c576200035b62000461565b5b6200036782620004a4565b9050602081019050919050565b600081519050919050565b600082825260208201905092915050565b60005b83811015620003b057808201518184015260208101905062000393565b83811115620003c0576000848401525b50505050565b60006002820490506001821680620003df57607f821691505b60208210811415620003f657620003f562000432565b5b50919050565b6200040782620004a4565b810181811067ffffffffffffffff8211171562000429576200042862000461565b5b80604052505050565b7f4e487b7100000000000000000000000000000000000000000000000000000000600052602260045260246000fd5b7f4e487b7100000000000000000000000000000000000000000000000000000000600052604160045260246000fd5b600080fd5b600080fd5b600080fd5b600080fd5b6000601f19601f8301169050919050565b61072180620004c56000396000f3fe608060405234801561001057600080fd5b50600436106100365760003560e01c806319ff1d211461003b578063435ffe9414610059575b600080fd5b610043610075565b60405161005091906104bc565b60405180910390f35b610073600480360381019061006e919061043a565b610107565b005b606060008054610084906105de565b80601f01602080910402602001604051908101604052809291908181526020018280546100b0906105de565b80156100fd5780601f106100d2576101008083540402835291602001916100fd565b820191906000526020600020905b8154815290600101906020018083116100e057829003601f168201915b5050505050905090565b6101b46040518060600160405280602781526020016106c56027913960008054610130906105de565b80601f016020809104026020016040519081016040528092919081815260200182805461015c906105de565b80156101a95780601f1061017e576101008083540402835291602001916101a9565b820191906000526020600020905b81548152906001019060200180831161018c57829003601f168201915b505050505083610267565b80600090805190602001906101ca929190610327565b5050565b610264816040516024016101e291906104bc565b6040516020818303038152906040527f41304fac000000000000000000000000000000000000000000000000000000007bffffffffffffffffffffffffffffffffffffffffffffffffffffffff19166020820180517bffffffffffffffffffffffffffffffffffffffffffffffffffffffff8381831617835250505050610306565b50565b61030183838360405160240161027f939291906104de565b6040516020818303038152906040527f2ced7cef000000000000000000000000000000000000000000000000000000007bffffffffffffffffffffffffffffffffffffffffffffffffffffffff19166020820180517bffffffffffffffffffffffffffffffffffffffffffffffffffffffff8381831617835250505050610306565b505050565b60006a636f6e736f6c652e6c6f679050600080835160208501845afa505050565b828054610333906105de565b90600052602060002090601f016020900481019282610355576000855561039c565b82601f1061036e57805160ff191683800117855561039c565b8280016001018555821561039c579182015b8281111561039b578251825591602001919060010190610380565b5b5090506103a991906103ad565b5090565b5b808211156103c65760008160009055506001016103ae565b5090565b60006103dd6103d88461054f565b61052a565b9050828152602081018484840111156103f9576103f86106a4565b5b61040484828561059c565b509392505050565b600082601f8301126104215761042061069f565b5b81356104318482602086016103ca565b91505092915050565b6000602082840312156104505761044f6106ae565b5b600082013567ffffffffffffffff81111561046e5761046d6106a9565b5b61047a8482850161040c565b91505092915050565b600061048e82610580565b610498818561058b565b93506104a88185602086016105ab565b6104b1816106b3565b840191505092915050565b600060208201905081810360008301526104d68184610483565b905092915050565b600060608201905081810360008301526104f88186610483565b9050818103602083015261050c8185610483565b905081810360408301526105208184610483565b9050949350505050565b6000610534610545565b90506105408282610610565b919050565b6000604051905090565b600067ffffffffffffffff82111561056a57610569610670565b5b610573826106b3565b9050602081019050919050565b600081519050919050565b600082825260208201905092915050565b82818337600083830152505050565b60005b838110156105c95780820151818401526020810190506105ae565b838111156105d8576000848401525b50505050565b600060028204905060018216806105f657607f821691505b6020821081141561060a57610609610641565b5b50919050565b610619826106b3565b810181811067ffffffffffffffff8211171561063857610637610670565b5b80604052505050565b7f4e487b7100000000000000000000000000000000000000000000000000000000600052602260045260246000fd5b7f4e487b7100000000000000000000000000000000000000000000000000000000600052604160045260246000fd5b600080fd5b600080fd5b600080fd5b600080fd5b6000601f19601f830116905091905056fe4368616e67696e672068656c6c6f4d6573736167652066726f6d202725732720746f2027257327a2646970667358221220ab0d131582b0f988b728ec2698c844f683d3be9cfb920bde5d6e72fd6c3be14664736f6c63430008060033",
  "linkReferences": {},
  "deployedLinkReferences": {}
}